:1000000012C03AC02BC02AC029C028C027C026C0B1
:1000100025C024C023C022C021C020C01FC01EC0D4
:100020001DC01CC01BC011241FBECFE5D4E0DEBF25
:10003000CDBF10E0A0E6B0E0E4E8F2E002C0059039
:100040000D92A236B107D9F710E0A2E6B0E001C0E8
:100050001D92A736B107E1F703D112C1D1CF8E9A15
:1000600096988A98929885B7826085BF8BB780648E
:100070008BBF84E083BF08951F920F920FB60F923B
:1000800011242F938F939F93969A8091660087FDFA
:10009000ADC085B791E0892785BF209160002130F0
:1000A00019F0223091F514C008B600FE9FC080B749
:1000B000816080BF12BE88B7816088BF82E0809374
:1000C00060001092630010926200109264008EC073
:1000D00008B600FC23C082B7873100F182B78032B6
:1000E000E8F405B600FE09C080B7816080BF12BE8B
:1000F00088B7816088BF83E012C080B7816080BF0D
:1001000012BE88B7816088BF71C008B600FC06C007
:1001100082B7873118F082B7803420F081E0809375
:10012000600064C082B7803230F58091640088231B
:10013000C1F08091620090916300880F991F9093A5
:1001400063008093620005B600FE05C08160909355
:10015000630080936200109264002F5F2093600020
:1001600002C09093640080B7816080BF12BE88B7E0
:10017000816088BF1CC08091620090916300880FED
:10018000991F909363008093620005B600FE05C03E
:100190008160909363008093620080B7816080BF2C
:1001A00012BE88B7816088BF2F5F20936000809166
:1001B00060008F30D8F08091620090916300282F0A
:1001C0002F732093650026E0969587952A95E1F791
:1001D00090936300809362008F73806880936600C1
:1001E00081E0809360008BB78F7B8BBF8091600034
:1001F000813061F480B7816080BF12BE88B78160B2
:1002000088BF85B78E7F85BF1092640096989F91B6
:100210008F912F910F900FBE0F901F901895809186
:10022000660085FF02C0979A01C0979888EB9BE013
:1002300028EC30E0F9013197F1F70197D9F7809177
:1002400065008C3021F488B391E0892788BB8091C8
:1002500066008F77809366008BB780648BBF0895AC
:10026000B89A8F9AFCDE85B7806885BF85B78F788E
:1002700085BF78948091660087FDD1DF8895FACF9D
:04028000F894FFCF20
:02028400010077
:00000001FF
